:020000040800F2
:10000000A00B0020110100081501000817010008CD
:1000100000000000000000000000000000000000E0
:1000200000000000000000000000000019010008AE
:1000300000000000000000004F0200085502000808
:10004000C11D0008C11D0008C11D0008C11D000818
:10005000C11D0008C11D0008C11D0008C11D000808
:10006000C11D0008C11D0008C11D0008C11D0008F8
:10007000C11D0008C11D0008C11D0008C11D0008E8
:10008000C11D0008C11D0008C11D0008C11D0008D8
:1000900000000000C11D000800000000C11D000894
:1000A000C11D0008C11D0008C11D0008C11D0008B8
:1000B000C11D0008C11D0008C11D0008C11D0008A8
:1000C00000000000C11D000800000000C11D000864
:1000D000C11D0008C11D0008C11D0008C11D000888
:1000E000C11D0008C11D0008C11D0008000000005E
:1000F00000000000C11D0008DFF810D000F062F819
:1001000000480047C3310008AFF30080A00B002077
:1001100003480047FEE7FEE7FEE7FEE7FEE7FEE7EF
:10012000F90000082DE9F05F0546002092469B4645
:1001300088460646814640241BE0284641464746FD
:10014000224600F02FF853465A46C01A914110D368
:1001500011461846224600F016F82D1A67EB0108E2
:100160004F4622460120002100F00DF817EB000950
:100170004E41201EA4F10104DFDC484631462A46E8
:100180004346BDE8F09F202A04DB203A00FA02F142
:10019000002070479140C2F1200320FA03F3194375
:1001A00090407047202A04DB203A21FA02F0002117
:1001B000704721FA02F3D040C2F120029140084377
:1001C00019467047064C074D06E0E06840F0010311
:1001D00094E8070098471034AC42F6D3FFF790FF3D
:1001E000B4350008D435000870B58C1810F8015BE0
:1001F00015F0070301D110F8013B2A1106D110F8C0
:10020000012B03E010F8016B01F8016B5B1EF9D1C3
:100210002B0705D40023521E0DD401F8013BFAE749
:1002200010F8013BCB1A921C03E013F8015B01F8B4
:10023000015B521EF9D5A142D8D3002070BD000049
:10024000EFF3108072B6704780F31088704701F0AA
:10025000F9BF0000034800688168002901D0C06828
:1002600008477047300100202DE9F041014643481E
:10027000006804680020831F44B1E269A568565CE9
:10028000112E03D01127102E0AD10DE01846BDE81B
:10029000F081E1690A5CB24200D10F54401CC0B247
:1002A000E17C8142F5D830E00D2906D00E2904D03A
:1002B0000F2911D013290FD01CE00721284602F086
:1002C00078FE0D20E1690A5C102A00D10F54401C11
:1002D000C0B21528F6D318E0507B11280AD00221AD
:1002E000284602F066FEE069C774E0690775E069B8
:1002F000C7730AE0142908D1D07C112805D0012148
:10030000284602F056FEE0690775112E32D2DFE86A
:1003100006F0090D12311431193121312631312BFA
:10032000311D2F00686820F0010002E0686820F0AD
:10033000020068601CE0012100E00321284602F071
:1003400059FE15E0686820F04000F2E7686820F484
:100350000040EEE70021284602F036FE08E00021CA
:10036000284602F03CFE03E00021284602F016FE7B
:1003700000208CE76FF0220089E700009401002044
:1003800010B502F0CDF9BDE8104001F009BB50B145
:10039000426A42B10029016A5068126801D052686D
:1003A00000E0926810476FF01200704738B50446BD
:1003B0006946D4E90020D26890470B30F8D09DF808
:1003C000000038BD70B50D4604462946D4E900202A
:1003D000126990470B30F8D0284670BD70B50D46B5
:1003E00004460A2805D10D21284602F04DFA0B30AB
:1003F000F9D02146284602F047FA0B30F9D0012007
:1004000070BD70B50E460546044603E03146FFF761
:10041000E5FF641C20780028F8D1601B70BD000047
:100420002DE9F047164E81460C467069D6F80C80CF
:10043000470800F029FE054630690021B0EB0902AB
:1004400071EB04021AD2B9EB000664EB0104894691
:1004500000F01AFEA84201D3411B02E0A8EB0501FF
:1004600001448B1B4A4679EB040307D2761A64EBEE
:100470000204B91BA24101D20546E9E7BDE8F087B5
:100480009C02002008B5009002E0BFF36F8F084681
:10049000411E0091F9D208BD70B5054600F0F4FD8B
:1004A00004462846FFF7EEFF00F0EEFD0146204629
:1004B000BDE8704000F0D6BD2DE9F047374E64240A
:1004C00042F210772046FFF7E7FF0546B068B0FB21
:1004D000F7F0A8425FD26000FFF7DEFF451BB0686F
:1004E00043F60951B0FBF1F0A1004843B0FBF5F031
:1004F0004FF0FF377762B06100F0C6FD8046012003
:1005000002F0C6F900F0C0FD0146404600F0AAFD29
:10051000B1684FF4FA62B1FBF2F200EB4003C3EBB7
:10052000C01002EBC0004FF47A72B1FBF2F1B0FBE5
:10053000F1F0F76100F10108706200F0A5FD81465D
:10054000404602F0A5F900F09FFD0146484600F044
:1005500089FD604300EB5500B0FBF5F0C6E90707E5
:100560000002B16900F58070B0FBF1F77F1C00F06C
:100570008BFD8046384602F08BF900F085FD014680
:10058000404600F06FFD604300EB5500B0FBF5F016
:100590003062BDE8F087640094E700009C02002010
:1005A0002DE9F0472648FF263746006800244FF023
:1005B00001080068056808EB840008FA00F1284685
:1005C00002F0CDFD40B3022000EB840008FA00F1F8
:1005D00047460E46284602F0C2FD10B16868304317
:1005E0006860032000EB840007FA00F12646B94654
:1005F0008846284602F0B3FD28B16968012741EA20
:100600000801696000E0002709EB840109FA01F0A4
:1006100069680143696002E0641C052CCBDBFF2E96
:100620000BD0084850F8362000EBC600002A40687E
:1006300003D03946BDE8F0471047BDE8F087000019
:10064000880100203C0300202DE9F0410E460446BD
:100650004FF00008D4E9000107460D4632464346F4
:10066000FFF760FDD4E90232B3EB000C72EB010C32
:1006700001D2184611464346A0FB06C801FB06827C
:1006800000FB0323B7EB0C0265EB0305D4E9043749
:10069000D31A75EB070308D204F1180383E843006B
:1006A000C4E90425012084F82400BDE8F0812DE987
:1006B000F047904689460646002704680FE0E56843
:1006C00063681BB141464846A26898472078C00736
:1006D00002D0E760356001E004F10C062C46002CE6
:1006E000EDD1BDE8F08700000EB58DE807000022CF
:1006F0006946024801F044FB0EBD000030030020B3
:10070000704700000248016841F080510160704765
:1007100004ED00E000210204120C01D1000C1021B4
:1007200010F0FF0F01D1000A0831024AC0B2105C7C
:10073000084470471C3200082DE9F04100260546A8
:1007400034464FF0010809E0006850F8240001F039
:1007500059FB10B108FA04F00643641CA8698168CB
:10076000A142F1DCE869B0421FD12F6AB7421CD028
:100770007740002414E008FA04F139420FD03140E8
:1007800000D00121027B02B101224068914250F861
:10079000240002D101F0C6FA01E001F08BFA641CDA
:1007A000A8698168A142E6DC2E62EE61BDE8F081B5
:1007B00010B50C490446C069096858B1496801443C
:1007C000814200DDE161D4E90602BDE8104000216C
:1007D000FFF78ABF0868E0614968204601F07EFFA4
:1007E000F1E700004801002070B505460A4804689A
:1007F000FFF726FD014607E0A0680268AA4202DC76
:100800004068A84202DAE468002CF5D10846FFF7F8
:100810001BFD204670BD00004C01002010B503698F
:100820001868081A996851F82000197B514001F0A6
:100830006FFC002010BD10B5006902688068891A3D
:1008400050F8210001F07AFC002010BD1449024646
:1008500000200968A2F58062092A07D2DFE802F0C9
:100860000507090B0D0F12151E00486870478868B0
:100870007047C868704708697047486970470868DA
:10088000006870470868406870470649496AC1F3C4
:1008900040010029F8D049F64040704702487047AF
:1008A0009801002000100240006CDC02094810B5DD
:1008B000006800684468006A6269D0E9001012F0BC
:1008C000010F01D001B18847606940F0010060610B
:1008D00010BD0000940100202DE9F04110480A24C9
:1008E0000127006801684D6807FA04F6686930421C
:1008F00010D0086A042202EBC40250F83410805869
:1009000001B188476869A740C7F3120108436861CD
:10091000BDE8F081641CE4B2102CE5D3F8E70000D8
:1009200094010020094810B5006800684468006A16
:100930006269D0E9021012F0020F01D001B18847BC
:10094000606940F00200606110BD00009401002069
:10095000094810B5006800684468006A6269D0E917
:10096000041012F0040F01D001B18847606940F013
:100970000400606110BD000094010020094810B51A
:10098000006800684468006A6269D0E9061012F0E5
:10099000080F01D001B18847606940F0080060612C
:1009A00010BD000094010020094810B500680068DF
:1009B0004468006A6269D0E9081012F0100F01D093
:1009C00001B18847606940F01000606110BD00000F
:1009D000940100202DE9F04110480524012700680A
:1009E00001684D6807FA04F66869304210D0086A59
:1009F000042202EBC40250F83410805801B1884739
:100A00006869A740C7F3120108436861BDE8F08137
:100A1000641CE4B20A2CE5D3F8E70000940100203E
:100A20002DE9F04F8BB01746DDE914AB054602788F
:100A3000984601200021FFF7A6FB401E41F1FF363A
:100A400004464146C01B76EB010005D30120CAF8DD
:100A50000000CBE9007847E06868E8B322463346F7
:100A60003846FFF75FFB0097CDE9018481460DF121
:100A7000140C4046CDE903678CE851000120089032
:100A800000208DF82400A878400611D56D684846EE
:100A90004D452DD3044608E021466846FFF7D4FDB6
:100AA000DDE90401084313D0641CAC42F4D90FE023
:100AB00001246868204209D04C4507D32146684686
:100AC000FFF7C2FDDDE90401084301D06400F0D165
:100AD0009DF8240000B100E00AE00899CAF800106F
:100AE000DDE90612CBE9001200200BB0BDE8F08F63
:100AF0006FF02200F9E7000010B5064C6269D3B22E
:100B00000122824011B142EA030001E023EA02001F
:100B1000606110BD0010024002E008C8121F08C149
:100B2000002AFAD170477047002001E001C1121F6E
:100B3000002AFBD17047000030B50C4D00232A6815
:100B400005E0946813468C4203D81A68091BAA4230
:100B5000F7D1816054685060C0E900242060AA4247
:100B600002D09868401A986030BD00007C010020D7
:100B700010B5044601F0DCFC00280CD106482168C1
:100B8000814203D08868A268104488602046BDE88E
:100B9000104001F0C6BC10BD7C01002010B501F072
:100BA000D5FDBDE8104001F067BD00B111B16FF097
:100BB00015007047016909683AB1C0E90223086865
:100BC00040F00200086000207047086820F0020032
:100BD000F8E710B50C4638B134B10069406800F050
:100BE00057FF2060002010BD6FF0150010BD08B148
:100BF00002B111B16FF015007047006900684168DB
:100C0000806821F07F4120F07F40081A10600020AA
:100C1000704700B111B16FF01500704700690068AE
:100C2000016821F002010160016821F00101016009
:100C300000207047B0B1A9B9A2B101691268096872
:100C400022F07F424A6000228A608068002808689B
:100C50000BD040F002000860086840F00100086016
:100C6000002070476FF01500704720F00200F2E797
:100C700000487047E431000808B102B111B16FF0CB
:100C8000150070470120106000207047012A02D033
:100C90006FF0220070470020704708B102B111B117
:100CA0006FF01500704700690068406820F07F40D1
:100CB00010600020704710B501690C68216911F0BF
:100CC000010F06D0816809B1C06888476FF0010044
:100CD000206110BD2DE9FF5F814680685FEA03084F
:100CE0000F4604684FF001054FF0000602D002994C
:100CF000414504D96FF0150004B0BDE8F09F40688D
:100D000000F0C6FE8346A8FB0B01DFF8E880002355
:100D10004246FFF707FA02998246A1FB0B014246C1
:100D20000023FFF7FFF94FF0010808EB1A4103E039
:100D3000761C6D1CB6B2ADB28D42F9D3A662BAFB79
:100D4000F5F1B0FBF5F04A1EE262226842F0800243
:100D50002260081AF9B204EB8101401E486378084A
:100D600004EB80008269F907090F4FF0030C0CFABD
:100D700001F39A4300238B401A438261D9F808009B
:100D8000437AF8B2410804EB81018D6900F0010259
:100D9000042000EBC2000726864003F00703B5439A
:100DA00083401D438D6188690CEBC20208FA02F88A
:100DB00040EA08008861D9F80800827A032000EB35
:100DC000870101208840216A0AB1014300E0814384
:100DD0002162D9F80800817A012000EB8702904057
:100DE0000029216A01D0014300E0814321620020F3
:100DF00082E7000000CA9A3B2DE9F0410646806870
:100E00000F4600242146D0F80C8005680FE004EB63
:100E1000440208EB8200027802F07F02BA4205D158
:100E2000816890F9010001F011F80121641CB0689B
:100E3000007AA042EBDA89B1286820F0010028602E
:100E4000286ABA000121914088432862B068007C7A
:100E500040B1022806D0032804D007E06FF0150047
:100E6000BDE8F081686C20F4004068640020F7E77A
:100E70002DE9F047804680680F46002529464FF04F
:100E8000010AD0F80C9004681CE005EB450209EB60
:100E90008206307800F07F00B84212D196F9010046
:100EA000716800F0D3FF3078216A000603D5022074
:100EB00000EB870200E0BA000AFA02F00143216267
:100EC00001216D1CD8F80800007AA842DDDA41B192
:100ED000D8F80800007C40B1022806D0032804D0CE
:100EE00007E06FF01500BDE8F087606C40F400404B
:100EF0006064606940F001006061206910F0010FDA
:100F000002D06FF001002061206840F001002060F5
:100F10000020E8E709B1012908D10268002161F346
:100F200046120260016821F0100101600268002190
:100F300061F30922026041628162016821F00201CD
:100F40000160704700B111B16FF015007047016981
:100F500009681AB1C0E9022300207047C86820F070
:100F60000100C860F8E710B50C4638B134B100692B
:100F7000806800F08DFD2060002010BD6FF015002E
:100F800010BD08B102B111B16FF0150070470069D2
:100F90000068406A10600020704700B111B16FF026
:100FA0001500704700690068C16821F00101C16047
:100FB000016821F00101016000207047F0B1E9B93A
:100FC000E2B101690968CB6823F00103CB601268C4
:100FD000CA6200224A624A6942F001024A616FF025
:100FE00001020A61806818B1C86840F00100C86059
:100FF000086840F001000860002070476FF015009D
:1010000070470000004870472833000808B102B15B
:1010100011B16FF01500704700690068806A1060B8
:101020000020704700B111B16FF0150070470069E2
:1010300000683AB1B2F5803F04D8521E91B2816285
:10104000002070476FF02200704708B102B111B163
:101050006FF01500704700690068C06A10600020DA
:1010600070470000074A814201D3081A02E0D368A2
:10107000181A08445169814201D8401A704700206B
:10108000704700009C020020054808B503680179FC
:101090006A4658681B681B699847009808BD00009D
:1010A0009C02002031B1012907D0022908D06FF03D
:1010B000220070474361826004E08361C26001E006
:1010C000C3610261002070474FF0FF3070472DE987
:1010D000F0410446406B154607680020461F0D2965
:1010E0002FD2DFE801F02E071C28301E23262E2EDB
:1010F0002E323A000121384602F05DF80028F9D07E
:10110000606B806800F0C4FC01462A46384602F055
:101110002BF8002815DD60620020BDE8F081616ACF
:101120001DE02946204600F07BF808E094F82010E6
:1011300015E0032113E02946204600F095F8002829
:10114000EBD03046E9E7218D09E094F83020E9B290
:101150008A42E2D084F83010DFE794F8301029603A
:10116000DBE770B50446406B0668F568022130463F
:1011700002F01AF8012806D00121304602F014F8D6
:10118000012804D006E0204600F013F802E02046D3
:1011900000F023F8E06A28420AD02569002D07D024
:1011A0003246E069AC46BDE8704001230321604748
:1011B00070BD70B50446406B02210568284601F0F9
:1011C000F3FF012808D1022068616868E268C1B2B3
:1011D000A069BDE87040104770BD38B50546406B4A
:1011E00001210468204601F0DFFF012813D160616E
:1011F000AA6869466869904770B1206920F00100CB
:10120000206195F83000002805D0686B81690029BD
:1012100001D00020884738BD9DF80000206038BD0F
:1012200070B50646406B0D460129046811D0022DA9
:1012300002D04FF0FF3070BD00793246094900F00E
:1012400099FF706B007900F0D7FF206940F0020031
:1012500002E0206920F07F00206186F82050002005
:1012600070BD00006311000830B5426B00231268A6
:1012700068B1946924F00104946111F00C040ED05B
:10128000042C07D0082C07D00C2C08D106E06FF0F6
:10129000150030BD102302E0202300E030238C062F
:1012A00023F0040301D543F004034C0623F00303A9
:1012B00006D50C0602D543F0010301E043F0030319
:1012C000D56903F0040425F004052543D561D569EB
:1012D00003F0300425F030052543D561D46903F0CF
:1012E000030324F003041C43D461936943F0010316
:1012F00093610185002030BD70B5406B0C46022122
:101300000568284601F057FF18B168682070002072
:1013100070BD6FF00A0070BD70B50446406B0E469C
:1013200008210568284601F046FFA8B194F830006E
:1013300020B1606B82690AB1012090472E6094F859
:10134000300038B1606B816921B1A868C007FCD05A
:1013500000208847002070BD6FF00A0070BD38B5CE
:10136000002104468DF80010406B94F83010056899
:1013700019B1816909B1012088470121284601F08E
:101380001AFF0028F9D0A26869466069904710B931
:101390009DF800002860286940F0010028610020C5
:1013A00038BD70474FF4407000F036BB4FF44070CA
:1013B00000F050BB2DE9F04140F20224204601F03C
:1013C00005FC651C284601F001FCA61C304601F016
:1013D000FDFBE71C384601F0F9FB4FF4007840466E
:1013E00001F0F4FB204600F017FB284600F014FB48
:1013F000304600F011FB384600F00EFB201D00F0D7
:101400000BFB4046BDE8F04100F006BB2DE9F04182
:1014100040F20224204600F01DFB651C284600F027
:1014200019FBA61C304600F015FBE71C384600F0FF
:1014300011FB201D00F00EFB4FF40078404600F039
:1014400009FB204601F0C2FB284601F0BFFB3046F5
:1014500001F0BCFB384601F0B9FB4046BDE8F04165
:1014600001F0B4BB10B540F20B24204601F0AEFBF6
:101470002046BDE8104000F0CFBA10B540F20B2472
:10148000204600F0E7FA2046BDE8104001F09EBB80
:1014900010B540F20B24204601F098FB2046BDE831
:1014A000104000F0B9BA10B540F20B24204600F00D
:1014B000D1FA2046BDE8104001F088BB10B54FF4CA
:1014C0008074204601F082FB2046BDE8104000F009
:1014D000A3BA10B54FF48074204600F0BBFA204642
:1014E000BDE8104001F072BB10B54FF48074204687
:1014F00001F06CFB2046BDE8104000F08DBA10B53D
:101500004FF48074204600F0A5FA2046BDE8104054
:1015100001F05CBB10B540F20114204601F056FB0F
:101520002046BDE8104000F077BA10B540F2011433
:10153000204600F08FFA2046BDE8104001F046BB7F
:1015400010B540F20114204601F040FB2046BDE8F2
:10155000104000F061BA10B540F20114204600F0CE
:1015600079FA2046BDE8104001F030BB10B54FF4C9
:101570008174204601F02AFB2046BDE8104000F0AF
:101580004BBA10B54FF48174204600F063FA204640
:10159000BDE8104001F01ABB10B54FF4817420462D
:1015A00001F014FB2046BDE8104000F035BA10B53C
:1015B0004FF48174204600F04DFA2046BDE81040FB
:1015C00001F004BB10B540F20E2000F025FA012115
:1015D000162000F03BFC0121BDE81040172000F070
:1015E00035BC000010B50549162000F02FFCBDE801
:1015F00010400349172000F029BC000000C0602201
:1016000000C0102210B540F2111000F005FA0121BF
:10161000032000F01BFC0121BDE81040022000F077
:1016200015BC000010B50549022000F00FFCBDE814
:1016300010400349032000F009BC000000E06811DD
:1016400000C0101110B54FF4897000F0E5F90121C8
:101650001A2000F0FBFB0121BDE810401B2000F028
:10166000F5BB000010B505491A2000F0EFFBBDE8FE
:10167000104003491B2000F0E9BB000000E06404B7
:1016800000C0100410B568B161B1184A0160106063
:10169000012202714B6900223BB1CB692BB10020C2
:1016A000FF2307E06FF0150010BD02710EE04C69DA
:1016B0002354401C0C698442F9DC002003E0CB6910
:1016C00043F83020401C8B698342F8DC087B084AD1
:1016D00000F0070110684FF6FF03184040EA0120B0
:1016E000044908431060002010BD00002C010020B8
:1016F0000CED00E00000FA05F0B5374B1B6873B144
:101700001C68257B637A05F00705C5F107079F4232
:1017100000D91F46EE18072E04D2002603E06FF012
:101720001500F0BDF61F4FF0010C0CFA07F56D1E09
:101730000D40B5400CFA06FCACF1010C0CEA020CB1
:10174000217A45EA0C0500F00F0231B1012904D0DD
:1017500002292BD003293CD128E003F0070481079C
:10176000C90EFF238B40002810DA121F22F003005D
:1017700000F1E020D0F8182D9A43C4F108039D40F1
:10178000EBB28B401A43C0F8182D22E020F0030082
:1017900000F1E020D0F800249A43C4F108039D40F2
:1017A000EBB28B401A43C0F8002412E003F00701AB
:1017B000002807DAC1F1080002F1E022854082F832
:1017C000145D06E0C1F1080100F1E0208D4080F8D1
:1017D00000540020F0BD00002C01002070B169B160
:1017E000084B0A68C0E9003000238360C0E9033178
:1017F000054B18608968042902D009B100207047A0
:1018000011607047EC3100083001002010B50F481E
:101810000F4900F09FF801F0AFFA002100F01CF82A
:1018200000F064FE00F0BCF900F08EF800F09CFFC0
:10183000084C606000F0E2F8206000F001FA00F06F
:10184000D5FDBDE8104000F071B80000A00B0020ED
:10185000005000209C010020F8B50D46040061D026
:10186000D4E900100968884706464088810759D5A1
:10187000410757D4010755D4C00653D57078A84204
:1018800050D9294F294607F108023C603D71204696
:1018900000F099FFD4E9003029465B6907F10C029A
:1018A0009847F86820B9317801208840401EF860D8
:1018B0000090D4E90020294693696A469847FEF7CC
:1018C000BFFC054600207861FFF7DEFB0446FFF70A
:1018D000DBFB01462046FFF7C5FB78612846FEF793
:1018E000B3FCFEF7ADFC05464FF0FF303861FFF763
:1018F000CBFB044640F2F51000F0CAFFFFF7C4FB33
:1019000001462046FFF7AEFB38612846FEF79CFCF7
:10191000FEF796FC0446FEF7CFFD2046BDE8F840F2
:10192000FEF792BCF8BD00009C020020044801684C
:1019300041F4400101600021024800F071BC000048
:1019400020ED00E0050700080146014800F05ABEFE
:10195000000000200B1A024601A1044800F018BE46
:1019600073797374656D5F6865617000C4020020EF
:1019700010B570B169B10B685BB1C0E900120649DE
:1019800000F1080208601046044900F051FE0020F2
:1019900010BD6FF0150010BD3C0100208103000850
:1019A0000548006828B1016819B10A68406800213B
:1019B00010476FF0120070473C0100202DE9F04104
:1019C0001E4617460D46040010D00A480A49024632
:1019D000C0E90854FFF7CCFF6068246829463A46FE
:1019E00024683346A446BDE8F04160476FF0150017
:1019F000BDE8F081F80200201032000810B501F0B7
:101A0000C3F9040004D0034B02215A10FFF7D6FF9C
:101A1000204610BD801A060010B50122C0F3072130
:101A20000B4C8240C3B2012904D0022906D00329FD
:101A30000BD107E0E0699043E06106E0A0699043C4
:101A4000A06102E0184601F084FB002010BD0000F8
:101A50000010024010B50122C0F307210B4C824058
:101A6000C3B2012904D0022906D003290BD107E013
:101A7000E0691043E06106E0A0691043A06102E064
:101A8000184601F069FB002010BD00000010024064
:101A900070B5034635490020C3F30725324C096869
:101AA000DAB2062D14D2DFE805F013031626282D2E
:101AB00032B1012A04D0022A02D0172A09D106E045
:101AC0006068C0F30220042803D308690FE0886926
:101AD00070BD086970BD092A0BD00A2A09D00B2AEB
:101AE00007D16068C0F3C220042802D348694000CF
:101AF00070BD486970BDC86870BDBDE870401846CB
:101B0000FEF7A4BE40F205439D1C92B1012AF3D119
:101B1000216AC1F30121012922D0022913D003290E
:101B2000EAD11846FFF7B4FFC11700EB5160C011AE
:101B300070BD6168C1F3810139B10129AAD00229C0
:101B40000BD00329F4D12B46A4E74FF48160FFF7B3
:101B50009FFF062190FBF1F070BD40F2014399E731
:101B600040F2064396E70000001002409801002072
:101B700010B5044607480A4601210460D4E9003044
:101B80001B6898472046BDE81040034A034900F00F
:101B900035BC00008401002003040008DD030008B8
:101BA00010B501F001F904464FF4E131FFF7E0FF11
:101BB000204610BD70B50C4605000AD04CB1FEF7AA
:101BC0003FFB65602968A1602C60FEF73DFB0020AB
:101BD00070BD6FF0150070BD70B50C46050009D0E2
:101BE00044B1FEF72DFB6968E1606C60FEF72CFBE9
:101BF000002070BD6FF0150070BD00000748002187
:101C0000084B01604160064807A201804360C0E9BB
:101C1000022101460148FFF7DFBF0000400100201C
:101C200020030020010700086361745F696E70750E
:101C30007400000001460148FFF7BCBF40010020CE
:101C400010B5FFF7DBFFBDE81040014800F002B817
:101C5000683500082DE9F041054613480021416030
:101C600001608160FFF7E6FF002D1AD0A868002808
:101C700017D0E868002814D00024661E1C270BE04B
:101C8000E86807EB44114650E868084900EB441047
:101C9000024600F0CDFC641CA868A042F0DC0448B9
:101CA0000560BDE8F081000030030020B1070008A6
:101CB000480100202DE9F04104461948026800203F
:101CC0003AB197682FB100210D461C264FF0180E2F
:101CD00011E06FF015051CE0D36806EB411C53F8CA
:101CE0000CC0BCF1FF3F0FD00EEB411C53F80C3081
:101CF000A3420ED0491C8F42EEDC40B1C0E906453C
:101D0000116800F0EBFC04E003EB4110F2E76FF028
:101D10000A05EA172046BDE8F0410021FEF7E4BCC1
:101D2000480100202DE9F041044614480268EAB158
:101D30009068D8B100211C25182615E0D36805EB62
:101D40004117DF597F1C0ED006EB4117DF59A74220
:101D500009D1D06800EB4115284600F0E1FC4FF0B6
:101D6000FF30E86102E0491C8842E7DC2046BDE81C
:101D7000F04100220121FEF7B7BC0000480100201D
:101D80002DE9F0410E4602F0010558B10446FEF778
:101D900057FA0746606832462146001DFEF787FC69
:101DA00025B108E06FF01500BDE8F081214632460C
:101DB0000846FEF77CFC3846FEF746FA0020F3E7BB
:101DC0000E480068002818D00D49006809680268AC
:101DD0001039C9B28A4210DC42688A420DDB42697E
:101DE000515CFF2909D0C069042350F8312003EB6E
:101DF000C101002A405800D0104770472C01002034
:101E000004ED00E070B504460F480068016858B161
:101E10000D682146284601F007F940B121462846C1
:101E2000BDE8704001F089B96FF0050070BD201168
:101E300005EB8020806804F00F02012191400840EA
:101E4000F4D0012070BD0000940100202DE9F84F6E
:101E50008146AE480D4600260068D0F80080E0B10B
:101E60000079F0B1D8F80000009005F00700D8F82C
:101E700008405FEA000BC5F3C20AC5F3814738D0BA
:101E80004846FEF7F1F95846BBF1010F0CD0032884
:101E90000FD0BBF1040F6ED119E06FF00500BDE863
:101EA000F88F6FF01200FAE74946009801F0D3F876
:101EB0001FE0A8044A4601D4032100E039460098F7
:101EC00001F0E0F84946009801F020F90CE0A80480
:101ED0004A4601D4032100E03946009801F0D2F8C7
:101EE0004946009801F01DF94A460021009801F08A
:101EF000EAF8BAF1000F23D04946009801F094F8AF
:101F0000C0B2BAF1060F36D2DFE80AF0FC030A11BC
:101F1000111301280FD04946009801F0F7F809E0A5
:101F2000012808D04946009801F0FBF802E001269C
:101F300001E000B902264A463146009801F0C3F894
:101F4000680451D5C5F30350082814D2DFE800F027
:101F500004090E141D28333E4946009801F07BF811
:101F60001CE04946009801F076F822E049460098C6
:101F700001F0D7F804E0C5E04946009801F0C6F842
:101F80004946009801F067F81EE0A8044A4601D5CA
:101F9000394600E00321009801F074F800211FE0A9
:101FA000A8044A4601D5394600E00321009801F013
:101FB00069F8012114E0A8044A4601D5394600E039
:101FC0000321009801F05EF8022109E0A8044A46C6
:101FD00001D5394600E00321009801F053F80321B0
:101FE0004A46009801F06FF828041AD5D8F81C105A
:101FF000C5F3046611F80900B04213D0112806D0C9
:10200000112E484606D0FEF72FF9D8F81C1001F81B
:1020100009600CE0FEF728F9D8F81C20112102F81D
:1020200009106DE0112802D04846FEF71DF9680F2F
:10203000C5F34171122E65D2DFE806F0091724645A
:102040002A64396446644A64644E64525F620129BA
:1020500002D0800704D053E0606840F0010002E045
:10206000606820F0010060604AE0012902D080072A
:1020700004D045E0606840F00200F4E7606820F0BA
:102080000200F0E7012909D0800739D101210AE0D7
:10209000012902D0800705D032E00321204600F05C
:1020A000B6FF2DE00321204600F0A4FF28E001291F
:1020B00002D0800704D023E0606840F04000D2E7FF
:1020C000606820F04000CEE7204600F07DFF17E07A
:1020D000204600F084FF13E0204600F05FFF0FE091
:1020E000012902D0800704D00AE0606840F4004073
:1020F000B9E7606820F40040B5E7204600F059FFDA
:102100000020CCE66FF02200C9E600009401002018
:102110000B460146084810B50068026828B11068EF
:1021200033B100F0F3FF002010BD6FF0050010BDCB
:1021300000F0F7FFF7E700009401002070B50546B6
:102140000B480068026858B114682946204600F020
:10215000F4FF00282946204605D000F0E2FF04E005
:102160006FF0050070BD00F0D1FF002070BD0000D1
:1021700094010020F0B51F4B6FF015041B68CBB124
:102180001B681D68854215DC5D68854212DB89B1DC
:102190005F694FF0040C3D5CFF2D0DD0D8690CEB4E
:1021A000C503C358934221D150F8350088421DD150
:1021B0000020F0BD2046F0BD00241E6907E0D3F8E2
:1021C0001CE05EF834E0BEF1000F03D0641CA642B0
:1021D000F5DC00E02546FF2D08D03D54D8690CEB16
:1021E000C5040251D86940F83510E1E74FF0FF30DF
:1021F000F0BD00002C0100200849096859B100F029
:102200001F02012191404009800000F1E020C0F848
:102210000011002070476FF0150070472C0100205E
:1022200010B5064CC4E901010548006800F11C0224
:10223000D0E9051300F070F8206010BD60010020A7
:10224000280100200148006800F002B86001002069
:102250002DE9F041040006D0207CC00706D06FF0C5
:102260000F00BDE8F0816FF01500FAE7FDF7E8FF19
:10227000216941F001012161FDF7E6FF0127FDF72A
:10228000DFFF0346A06858B3FEF744FA451EE06836
:1022900050F82500FEF73EFA00EB451520686D1E4C
:1022A00000EBC5021168A1F10C00D1E9006CC6F881
:1022B00004C0CCF8006009604960116891421DD1EA
:1022C00052688A421AD1E668690905F01F0556F876
:1022D000212007FA05F5AA4346F8212009D00DE090
:1022E000206920F0010020611846FDF7ADFF0020B5
:1022F000B7E7A56807FA01F29543A560418921F483
:1023000080714181D0E900561846FDF79DFF002DF0
:10231000B5D03046A847B2E72DE9F0411E46174632
:102320000D46040008D03FB136B105F11F00C0F3DF
:1023300047120020804605E00020BDE8F08146F805
:102340002080401C9042FADB002104E007EBC10032
:10235000491C00604060A942F8D3FDF771FFC4E951
:102360000075C4E90286FDF76FFF2046E5E700002F
:1023700070B50C46060006D02CB1A068202805DDFB
:102380006FF0220070BD6FF0150070BD207B80B132
:102390004FF0FF3030620025F06106E0206809212F
:1023A00050F82500FFF752FD6D1CA068A842F5DC2F
:1023B0000EE0002030620546F06106E02068112141
:1023C00050F82500FFF742FD6D1CA068A842F5DC1F
:1023D000324605491046B46100F02AF930462169B9
:1023E00000F07CF9002070BD39070008014902485F
:1023F000FFF7BEBF9833000804050020014B83E8B7
:10240000070070476C0100200FB4094808B5016847
:1024100061B1084802684AB103A800900648029BCF
:10242000006800F061FA01B05DF814FB0020FAE7E3
:1024300070010020740100206C0100202DE9F041A2
:10244000984616460D46040008D03EB135B12868BE
:10245000FEF7CAF94FF0FF3740B903E06FF01500FF
:10246000BDE8F0816868FEF7BFF908B13846F7E7C4
:10247000A5600025E560C4E90068FDF7E1FE0449B8
:102480000A68E2600C60FDF7DFFE2846E8E700001E
:102490004C0100202DE9F04107000D466FF01500BA
:1024A00020D0002D1ED0D5E90012561A761C002E21
:1024B00018DD00243D610BE0287B0028A86850F857
:1024C000240001D0032100E00421FFF7BFFC641CBD
:1024D000B442F1DB3B462946BDE8F041024A1846CA
:1024E000FFF7ACBFBDE8F081143200080149024893
:1024F000FFF7D0BFB43300082805002010B504460C
:10250000FEF772F938B101684A683AB1406821466D
:10251000BDE8104010476FF0120010BD6FF02200B0
:1025200010BDD0E900124A60116000604060704741
:102530000168814201D101207047002070470000EE
:1025400005A0FFF761FF4FF47A740020FFF7D6FF74
:10255000204600F00DF8F8E753746172742075702E
:10256000207375636365737366756C210D0A0000D3
:10257000064910B589684FF47A72A0FB0101002367
:10258000FDF7D0FDBDE81040FDF74ABF9C020020DA
:1025900010B5C0E9001223F0030181603039C16039
:1025A0003021016100F11C01154C0023C461C1E917
:1025B0000103C1E90331016381611460C2E90103D0
:1025C000C2E903325261C46802F1180121449160EA
:1025D000D160426181690A4C096911618169516167
:1025E0008169641C09694A6181690A6191680C60AA
:1025F000C1E901024B61C1E90323002010BD0000C5
:10260000A01EA01E024AC2E900010020704700007F
:102610003401002002490022C1E900201046704721
:10262000500100200148FFF7F5BF00007835000891
:1026300070B50446084815460E46006848B1246047
:102640006460FDF7FDFDC4E90465FDF7FDFD0020B4
:1026500070BD4FF0FF3070BD7801002030B10549EA
:1026600009604960091F0860002070476FF015007D
:10267000704700007C01002070B5FDF7E1FD0446C5
:102680001548FFF755FF144D20B929688A680AB12B
:10269000521E8A602046FDF7D7FD10E02C68A06826
:1026A000A8B92046FFF73DFF2046E168FEF744FA4F
:1026B0003046FDF7C9FD216909B160698847FDF71A
:1026C000BFFD06460448FFF733FF0028E6D030463A
:1026D000BDE87040FDF7B8BD7C01002070B505462F
:1026E0000E4802683AB14A434FF47A7002F2E73278
:1026F000B2FBF0F400E00024FDF7A2FD064604B9A9
:1027000001242846EC60FEF733FA21462846FEF7FE
:1027100013FA3046BDE87040FDF796BD7801002001
:1027200070B50546FDF78CFD04462846FEF720FAF5
:102730002046BDE87040FDF787BD00000249002239
:102740000A604860104670475801002010B5FDF738
:1027500077FD04490A68521C0A60FDF775FD0020E8
:1027600010BD00005801002038B50020009000F096
:1027700013FB04001CD04FF47A752846FFF76EFF58
:10278000032211461E20FEF7B7FF0023094A19460F
:10279000204600F011F8D4E90020694653689847B4
:1027A0002846FFF7CBFF2A460021204600F02AF8F2
:1027B000204638BD9D0B000830B411C8056A20467C
:1027C000AC4630BC6047F8B504004FF001000E463F
:1027D0001546009013D095B11146D4E900205268F7
:1027E0009047D4E900303146DB686A469847009844
:1027F00018B12968B1FBF0F028600020F8BD6FF037
:102800001500F8BDF0B587B017460D4604001ED080
:10281000D4E90010096888470646D4E9002004A9D5
:10282000526890470498174AA7FB00010023FDF760
:1028300079FC02AB05AACDE9002302460B463046DF
:10284000FEF7EEF830B16FF0220007B0F0BD6FF088
:102850001500FAE7D4E9003029469B68059A9847A5
:1028600030782946202802D80298009003E0DDE95C
:102870000202CDE90002D4E9002093696A46984734
:102880000020E2E740420F0005C8036910461847E0
:1028900010B5134AB0F5FA7F15D2516A81421DD2A4
:1028A0009169D3694143090A8B4217D20C4B126AD2
:1028B0009B694343C2EB13208A4200D30020BDE84A
:1028C0001040FDF7DFBD9168064AA0FB010100231F
:1028D000FDF728FCBDE81040FDF7A2BD10BD0000CB
:1028E0009C02002040420F002DE9FF4F85B01C469E
:1028F000129D89464FF0000AEB4614F8010B0028A0
:102900002CD0252801D0059930E0002214F8010BC5
:10291000164630280AD1012214F8010B06E006EB16
:10292000860100EB410614F8010B303EA0F13001A6
:102930000929F4D96C2803D114F8010B42F00202E2
:1029400073280CD063280CD025280DD064280FD014
:1029500075280DD058280DD078280DD058E001CD1D
:102960004CE015F8040BCEE7059925204A4647E0D0
:102970000A2303E0102301E04FF4887302CD64289A
:1029800004D1002902DA494242F004020F20002754
:102990008DF80F70DFB2B1FBF7FC07FB1C1C0CF1CC
:1029A000300C0CF0FF0CBCF1390F09D95FEAC358A9
:1029B00002D50CF1270C01E00CF1070C0CF0FF0C18
:1029C000B1FBF7F1401ED8460BF800C007D0002934
:1029D000E1D1510703D52D23401E0BF80030C6F17D
:1029E0000F0307E0D10701D0302100E02021401E75
:1029F00008F8001008B19842F4DC4044079A0599A1
:102A00009047002801DA4FF000008244BFF675AF0E
:102A100009B05046BDE8F08F2DE9F0410C460500A5
:102A20004FF0010625D024B3DFF87C815F4F2C6086
:102A3000C8F80050B86940F00C00B861207A01284D
:102A40001BD0386840F0010038603868C0F340009F
:102A50000028FAD056496960617A68684843A17ACB
:102A6000B0FBF1F2AA60217B0C291FD20020C91F04
:102A700019E06FF01500BDE8F081206900B18047D2
:102A8000386840F4803038603868C0F3404000282F
:102A9000FAD0D8F80000016809684160DCE77306E5
:102AA0001E0E401CC0B28142F9DC0BE04026002023
:102AB00001F00F010C3903E073061E0E401CC0B27A
:102AC0008142F9DCB2FBF6F3EB6028680121C07AA1
:102AD000401CB2FBF0F0A861627B002002F007020C
:102AE00003E04906090E401CC0B28242F9D8B3FB8C
:102AF000F1F02861A27B0121002002F0070203E02F
:102B00004906090E401CC0B28242F9D8B3FBF1F06D
:102B100068612848016841F038010160A968264AC7
:102B2000491EB1FBF2F1026822F003020A4302607F
:102B3000207B796860F307117960A07B7968C01CFD
:102B400060F3CD217960607B7968C01C60F30A2155
:102B50007960A07A3968401E60F316513960607A56
:102B60003968401E60F39F613960207A796860F3AC
:102B700011417960386840F0807038603868C0F37F
:102B800040600028FAD07968022060F30101796082
:102B9000E07A796860F397517960B86920F00C00A9
:102BA000B861002067E70000980100200010024093
:102BB000001BB7000020024000366E0101490248A8
:102BC000FFF72ABFC43300083C0500200121C0F3F1
:102BD00007220B4B8140012A02D0022A0DD106E0C8
:102BE00018690843186118698843186105E0D868B6
:102BF0000843D860D8688843D86000207047000038
:102C0000001002400149024800F0D6B8DC33000849
:102C1000AC0100202DE9F0410C4606004FF0000504
:102C20006FF0150711D084B1606A00B1804734603D
:102C3000E169002061B114F10C0F09D0A16939B12B
:102C4000216A29B11021112212E03846BDE8F08135
:102C50003071FAE70D2D12D00E2D10D00F2D0ED0A1
:102C6000132D0CD0142D0AD0E3695A556D1CEDB20A
:102C7000E37CAB42EED80021FF2204230DE0E369A0
:102C80005955F3E7A56903EBC1076A54256AE85172
:102C9000256A45F83100491CC9B2257D8D42F1D81D
:102CA00094F90C0000222449FFF764FA94F90D000E
:102CB00000222249FFF75EFA94F90E000022204913
:102CC000FFF758FA94F90F0000221E49FFF752FA55
:102CD00094F9100000221C49FFF74CFA94F91100F6
:102CE00000221A49FFF746FA94F912000022184907
:102CF000FFF740FA94F90C00FFF77EFA94F90D0003
:102D0000FFF77AFA94F90E00FFF776FA94F90F00BC
:102D1000FFF772FA94F91000FFF76EFA94F91100B8
:102D2000FFF76AFA94F91200FFF766FA0120307192
:102D300008480660002089E7AD080008250900085A
:102D4000510900087D090008A9090008D5090008F3
:102D5000D90800089401002001490248FFF75ABF32
:102D6000EC330008B001002001490248FEF78ABC9C
:102D700068330008A401002001490248FEF72EBD77
:102D800018340008200600200149024800F044B829
:102D9000643400084C0600200149024800F052B893
:102DA000E4340008A00600200149024800F084B87D
:102DB000FC340008B406002070B50D46002498B11C
:102DC00095B1124905600860A86800B180470F4BB3
:102DD00000200F49FF221B1D41F834001A55641CC6
:102DE000052CF9D32C790BE04FF0FF3070BD002299
:102DF00008492046FFF7BEF92046FFF7FDF9641C9D
:102E00006879A042F3D2002070BD00008801002044
:102E10003C030020A105000870B50D4604000DD04C
:102E200065B1686900B18047A56005492868C4E9B3
:102E30000014297CFEF76EF8204670BD002070BD9E
:102E40001C33000870B50D46040010D07DB1286910
:102E500000B18047256116492868C4E900140021A3
:102E6000A160E160297B21B1012902D00AE00020A4
:102E700070BD0268002161F346120260016821F012
:102E8000100101600268002161F3092202600168FB
:102E900021F0020101602069224606490079FFF70E
:102EA00069F920690079FFF7A7F9204670BD000095
:102EB00030330008B70C000870B50D00044620D070
:102EC0002E6834486563C4E9000428696062002103
:102ED00021853148A0606161E060A161E16120610C
:102EE000686920F00300E06284F83010287BC0F3AA
:102EF000011020B1012806D0022806D00C2121851E
:102F000005E0002070BD042000E008202085A868AE
:102F1000FEF7A0FD287B00F00300012803D1208DDF
:102F200040F0C0002085287B400703D5208D40F06D
:102F3000200020850121304600F03DF90028F9D01D
:102F4000218D2046FEF790F9606B8068FEF7A0FDAA
:102F5000014630462A6900F007F9606201212046E7
:102F6000FEF75EF9B06940F00800B061B06940F06A
:102F70001000B061B06940F00100B061606BC069E1
:102F800000B18047606B816909B100208847204605
:102F900070BD000054330008C9100008426822F4D4
:102FA000C0424260426801F0030142EA413141609F
:102FB0007047426801F0070122F0E06242EA0161D5
:102FC00042680A4342607047426822F4407242609D
:102FD000426801F0030142EA012141607047426802
:102FE00022F440624260426801F0030142EA81211A
:102FF00041607047012906D0032903D1416821F0BF
:10300000100141607047416821F00401F9E701298E
:1030100006D0032903D1416841F010014160704797
:10302000416841F00401F9E74FEA211200EB8222E6
:103030000B074FEA41704FEAD0614FF0030000FAEE
:1030400001F001D5516800E01168014201D0012072
:1030500070470020704710B54FEA41720C074FEAE5
:10306000D2634FF003024FEA211102FA03F200EBA0
:10307000812003D541689143416010BD01689143AF
:10308000016010BD30B54FEA427415074FEAD464B1
:103090004FF0030301F003014FEA221203FA04F395
:1030A00001FA04F100EB822006D542689A4342609F
:1030B00042681143416030BD02689A430260026871
:1030C0001143016030BD70B502F0070615074FF0DF
:1030D000020404EB86044FF0030301F003014FEAFE
:1030E000221203FA04F301FA04F100EB822006D560
:1030F00042689A43426042681143416070BD026871
:103100009A43026002681143016070BD0A1100EB2E
:103110008220026901F00F03012199400A430261F4
:1031200070470A1100EB8220026901F00F030121B0
:10313000994042EA0141016170470A1100EB822087
:10314000C06801F00F0201219140084000D0012029
:1031500070470021FDF7D0BC0121FDF7CDBC006810
:10316000084000D0012070470E4B994202D94FF021
:10317000FF307047B1FBF2F3B1FBF2F1C3F30F1371
:1031800001F00F01036241628169C1F3000139B1AD
:10319000816921F001018161816941F00101816151
:1031A0001046704700D8B805C06801F07B010840A0
:1031B00000D00120704780680840000700D001203F
:1031C000704710B5FFF7FAFCFFF7CEFDFFF7C4FD1F
:1031D000FFF718FDFFF726FAFEF718FBBDE81040D1
:1031E000FFF7AEB91801130000000000710C0008D1
:1031F000D30B00088D0C0008790C0008EF0B0008B9
:103200009B0C0008350C0008130C0008AB0B0008E1
:103210008F0300081D08000837080008000102019C
:10322000030102010401020103010201050102017F
:10323000030102010401020103010201060102016E
:10324000030102010401020103010201050102015F
:10325000030102010401020103010201070102014D
:10326000030102010401020103010201050102013F
:10327000030102010401020103010201060102012E
:10328000030102010401020103010201050102011F
:10329000030102010401020103010201080102010C
:1032A00003010201040102010301020105010201FF
:1032B00003010201040102010301020106010201EE
:1032C00003010201040102010301020105010201DF
:1032D00003010201040102010301020107010201CD
:1032E00003010201040102010301020105010201BF
:1032F00003010201040102010301020106010201AE
:10330000030102010401020103010201050102019E
:10331000030102010401020103010201D50C0008AE
:10332000710E0008F90D00081001530000000100A3
:1033300005100008670F0008251000080D10000890
:10334000830F00084B100008BD0F00089B0F0008FA
:10335000450F0008CF1000085F130008A5100008F3
:10336000F912000819130008000000002D000000E9
:1033700002040000100000002E000000D404002011
:103380002E00000064030020000000000000000088
:10339000270000005200000090330008943300081A
:1033A00001000000010000000A0000001100000000
:1033B000080000000000000001000000AC3300081D
:1033C00001000000001BB70000000000010801011F
:1033D00000010001A31300080000000000000240EB
:1033E0000B110000AD130008A513000800080140F0
:1033F0000004014000000140060708090A172833AD
:1034000010000000100600205C0500209005002040
:103410000D140008B513000810E000E000050000DE
:10342000040000000000000000000000002C01402B
:103430000B02000007070000B80100200000000098
:103440007B14000865140008000000400001000023
:10345000040700000C02002001000000D314000843
:10346000BD1400080004004001010000070700002F
:103470003C020020010000002B1500081515000873
:103480000008004002010000070700006C02002055
:1034900001000000831500086D150008002C014094
:1034A000190000000B02000000000000A714000833
:1034B00091140008000000401C0000000001000002
:1034C00001000000FF140008E91400080004004097
:1034D0001D00000001010000010000005715000858
:1034E00041150008000800401E0000000201000015
:1034F00001000000AF1500089915000800380140D0
:10350000250000000E0200003000000000C2010093
:103510000000000000000000E5150008C5150008C7
:1035200000440040260000001101000030000000AF
:1035300000C2010000000000000000002516000885
:103540000516000800480040270000001201000096
:103550003000000000C20100000000000000000078
:103560006516000845160008E80300006400000026
:10357000020000005C070020A035000800000000E9
:103580000000000000010000A0350008000000005D
:10359000000000000000000000000000000000002B
:1035A0006D6963726F706F72745F656570726F6D55
:1035B00000000000D4350008000000209C0200003C
:1035C000E8010008483600089C02002004090000B9
:1035D000280B000813C5031B08AD04011432203B5F
:1035E00024010701FF2122080A8E20911114C060D6
:1035F000068EC01011801D0C8B01090C8B811E0CD6
:103600008B020A0C8B821F0C8B030B0C113A0F0CD4
:103610003A28488A130C3B021A0C3A48308A1B0C91
:10362000113A060C3A0A308A070C3B02280C3A6A17
:10363000308A1118113A160C3A11308A170C8B0285
:08364000180C8B03190C0000AB
:04000005080000F9F6
:00000001FF
